{
  "contractName": "Users",
  "abi": [
    {
      "anonymous": false,
      "inputs": [
        {
          "indexed": false,
          "internalType": "address",
          "name": "user",
          "type": "address"
        },
        {
          "indexed": false,
          "internalType": "string",
          "name": "Qmhash",
          "type": "string"
        }
      ],
      "name": "Add",
      "type": "event"
    },
    {
      "anonymous": false,
      "inputs": [
        {
          "indexed": false,
          "internalType": "address",
          "name": "user",
          "type": "address"
        },
        {
          "indexed": false,
          "internalType": "string",
          "name": "Qmhash",
          "type": "string"
        }
      ],
      "name": "Delete",
      "type": "event"
    },
    {
      "anonymous": false,
      "inputs": [
        {
          "indexed": false,
          "internalType": "address",
          "name": "user",
          "type": "address"
        },
        {
          "indexed": false,
          "internalType": "string",
          "name": "Qmhash",
          "type": "string"
        }
      ],
      "name": "Update",
      "type": "event"
    },
    {
      "constant": true,
      "inputs": [
        {
          "internalType": "address",
          "name": "",
          "type": "address"
        }
      ],
      "name": "hashList",
      "outputs": [
        {
          "internalType": "string",
          "name": "",
          "type": "string"
        }
      ],
      "payable": false,
      "stateMutability": "view",
      "type": "function"
    },
    {
      "constant": true,
      "inputs": [
        {
          "internalType": "uint256",
          "name": "",
          "type": "uint256"
        }
      ],
      "name": "userList",
      "outputs": [
        {
          "internalType": "address",
          "name": "",
          "type": "address"
        }
      ],
      "payable": false,
      "stateMutability": "view",
      "type": "function"
    },
    {
      "constant": false,
      "inputs": [
        {
          "internalType": "string",
          "name": "_ipfsHash",
          "type": "string"
        }
      ],
      "name": "updateHash",
      "outputs": [],
      "payable": false,
      "stateMutability": "nonpayable",
      "type": "function"
    },
    {
      "constant": false,
      "inputs": [
        {
          "internalType": "string",
          "name": "_ipfsHash",
          "type": "string"
        }
      ],
      "name": "addUser",
      "outputs": [],
      "payable": false,
      "stateMutability": "nonpayable",
      "type": "function"
    },
    {
      "constant": false,
      "inputs": [],
      "name": "deleteUser",
      "outputs": [],
      "payable": false,
      "stateMutability": "nonpayable",
      "type": "function"
    },
    {
      "constant": true,
      "inputs": [],
      "name": "readHash",
      "outputs": [
        {
          "internalType": "string",
          "name": "",
          "type": "string"
        }
      ],
      "payable": false,
      "stateMutability": "view",
      "type": "function"
    },
    {
      "constant": true,
      "inputs": [],
      "name": "readAllHashes",
      "outputs": [
        {
          "internalType": "string[]",
          "name": "",
          "type": "string[]"
        }
      ],
      "payable": false,
      "stateMutability": "view",
      "type": "function"
    }
  ],
  "bytecode": "0x608060405234801561001057600080fd5b50610ff8806100206000396000f3fe608060405234801561001057600080fd5b506004361061009a576000357c01000000000000000000000000000000000000000000000000000000009004806392dea9221161007857806392dea922146100e35780639f4216e8146100ff578063ec24abc51461012f578063f0ff60cf1461015f5761009a565b8063026ff05e1461009f57806318b8275a146100a957806383452abc146100c5575b600080fd5b6100a761017d565b005b6100c360048036036100be9190810190610b8b565b6104d8565b005b6100cd610616565b6040516100da9190610d92565b60405180910390f35b6100fd60048036036100f89190810190610b8b565b61079e565b005b61011960048036036101149190810190610bcc565b61082d565b6040516101269190610d47565b60405180910390f35b61014960048036036101449190810190610b62565b610869565b6040516101569190610db4565b60405180910390f35b610167610919565b6040516101749190610dd6565b60405180910390f35b600060018060003373ffffffffffffffffffffffffffffffffffffffff1673ffffffffffffffffffffffffffffffffffffffff1681526020019081526020016000205403905060008110156101d157600080fd5b60016002805490501115610275576002600160028054905003815481106101f457fe5b9060005260206000200160009054906101000a900473ffffffffffffffffffffffffffffffffffffffff166002828154811061022c57fe5b9060005260206000200160006101000a81548173ffffffffffffffffffffffffffffffffffffffff021916908373ffffffffffffffffffffffffffffffffffffffff1602179055505b60018101600160006002848154811061028a57fe5b9060005260206000200160009054906101000a900473ffffffffffffffffffffffffffffffffffffffff1673ffffffffffffffffffffffffffffffffffffffff1673ffffffffffffffffffffffffffffffffffffffff1681526020019081526020016000208190555060028054806102fe57fe5b6001900381819060005260206000200160006101000a81549073ffffffffffffffffffffffffffffffffffffffff02191690559055600160003373ffffffffffffffffffffffffffffffffffffffff1673ffffffffffffffffffffffffffffffffffffffff1681526020019081526020016000206000905560606000803373ffffffffffffffffffffffffffffffffffffffff1673ffffffffffffffffffffffffffffffffffffffff1681526020019081526020016000208054600181600116156101000203166002900480601f01602080910402602001604051908101604052809291908181526020018280546001816001161561010002031660029004801561044a5780601f1061041f5761010080835404028352916020019161044a565b820191906000526020600020905b81548152906001019060200180831161042d57829003601f168201915b505050505090506000803373ffffffffffffffffffffffffffffffffffffffff1673ffffffffffffffffffffffffffffffffffffffff168152602001908152602001600020600061049b91906109f7565b7f0ae95ec727ed7e8d6131cff59570fa1afc6172c0beec9da3f7ee05ca91aebe0f33826040516104cc929190610d62565b60405180910390a15050565b60023390806001815401808255809150509060018203906000526020600020016000909192909190916101000a81548173ffffffffffffffffffffffffffffffffffffffff021916908373ffffffffffffffffffffffffffffffffffffffff16021790555050806000803373ffffffffffffffffffffffffffffffffffffffff1673ffffffffffffffffffffffffffffffffffffffff1681526020019081526020016000209080519060200190610590929190610a3f565b50600280549050600160003373ffffffffffffffffffffffffffffffffffffffff1673ffffffffffffffffffffffffffffffffffffffff168152602001908152602001600020819055507f642fae9d0bdca764daf250fc90831d6e88318a4ce78836d46fbbf63c282c6c20338260405161060b929190610d62565b60405180910390a150565b60608060028054905060405190808252806020026020018201604052801561065257816020015b606081526020019060019003908161063d5790505b50905060008090505b8151811015610796576000806002838154811061067457fe5b9060005260206000200160009054906101000a900473ffffffffffffffffffffffffffffffffffffffff1673ffffffffffffffffffffffffffffffffffffffff1673ffffffffffffffffffffffffffffffffffffffff1681526020019081526020016000208054600181600116156101000203166002900480601f01602080910402602001604051908101604052809291908181526020018280546001816001161561010002031660029004801561076d5780601f106107425761010080835404028352916020019161076d565b820191906000526020600020905b81548152906001019060200180831161075057829003601f168201915b505050505082828151811061077e57fe5b6020026020010181905250808060010191505061065b565b508091505090565b806000803373ffffffffffffffffffffffffffffffffffffffff1673ffffffffffffffffffffffffffffffffffffffff16815260200190815260200160002090805190602001906107f0929190610a3f565b507fc6ee1e1e08307ce2d854c77911cf72b51710027139dd730756959e981480edb73382604051610822929190610d62565b60405180910390a150565b6002818154811061083a57fe5b906000526020600020016000915054906101000a900473ffffffffffffffffffffffffffffffffffffffff1681565b60006020528060005260406000206000915090508054600181600116156101000203166002900480601f0160208091040260200160405190810160405280929190818152602001828054600181600116156101000203166002900480156109115780601f106108e657610100808354040283529160200191610911565b820191906000526020600020905b8154815290600101906020018083116108f457829003601f168201915b505050505081565b60606000803373ffffffffffffffffffffffffffffffffffffffff1673ffffffffffffffffffffffffffffffffffffffff1681526020019081526020016000208054600181600116156101000203166002900480601f0160208091040260200160405190810160405280929190818152602001828054600181600116156101000203166002900480156109ed5780601f106109c2576101008083540402835291602001916109ed565b820191906000526020600020905b8154815290600101906020018083116109d057829003601f168201915b5050505050905090565b50805460018160011615610100020316600290046000825580601f10610a1d5750610a3c565b601f016020900490600052602060002090810190610a3b9190610abf565b5b50565b828054600181600116156101000203166002900490600052602060002090601f016020900481019282601f10610a8057805160ff1916838001178555610aae565b82800160010185558215610aae579182015b82811115610aad578251825591602001919060010190610a92565b5b509050610abb9190610abf565b5090565b610ae191905b80821115610add576000816000905550600101610ac5565b5090565b90565b600081359050610af381610f87565b92915050565b600082601f830112610b0a57600080fd5b8135610b1d610b1882610e25565b610df8565b91508082526020830160208301858383011115610b3957600080fd5b610b44838284610f34565b50505092915050565b600081359050610b5c81610f9e565b92915050565b600060208284031215610b7457600080fd5b6000610b8284828501610ae4565b91505092915050565b600060208284031215610b9d57600080fd5b600082013567ffffffffffffffff811115610bb757600080fd5b610bc384828501610af9565b91505092915050565b600060208284031215610bde57600080fd5b6000610bec84828501610b4d565b91505092915050565b6000610c018383610cd5565b905092915050565b610c1281610efe565b82525050565b610c2181610ec2565b82525050565b6000610c3282610e61565b610c3c8185610e8f565b935083602082028501610c4e85610e51565b8060005b85811015610c8a5784840389528151610c6b8582610bf5565b9450610c7683610e82565b925060208a01995050600181019050610c52565b50829750879550505050505092915050565b6000610ca782610e77565b610cb18185610eb1565b9350610cc1818560208601610f43565b610cca81610f76565b840191505092915050565b6000610ce082610e6c565b610cea8185610ea0565b9350610cfa818560208601610f43565b610d0381610f76565b840191505092915050565b6000610d1982610e6c565b610d238185610eb1565b9350610d33818560208601610f43565b610d3c81610f76565b840191505092915050565b6000602082019050610d5c6000830184610c18565b92915050565b6000604082019050610d776000830185610c09565b8181036020830152610d898184610c9c565b90509392505050565b60006020820190508181036000830152610dac8184610c27565b905092915050565b60006020820190508181036000830152610dce8184610d0e565b905092915050565b60006020820190508181036000830152610df08184610c9c565b905092915050565b6000604051905081810181811067ffffffffffffffff82111715610e1b57600080fd5b8060405250919050565b600067ffffffffffffffff821115610e3c57600080fd5b601f19601f8301169050602081019050919050565b6000819050602082019050919050565b600081519050919050565b600081519050919050565b600081519050919050565b6000602082019050919050565b600082825260208201905092915050565b600082825260208201905092915050565b600082825260208201905092915050565b6000610ecd82610ed4565b9050919050565b600073ffffffffffffffffffffffffffffffffffffffff82169050919050565b6000819050919050565b6000610f0982610f10565b9050919050565b6000610f1b82610f22565b9050919050565b6000610f2d82610ed4565b9050919050565b82818337600083830152505050565b60005b83811015610f61578082015181840152602081019050610f46565b83811115610f70576000848401525b50505050565b6000601f19601f8301169050919050565b610f9081610ec2565b8114610f9b57600080fd5b50565b610fa781610ef4565b8114610fb257600080fd5b5056fea365627a7a7231582019e3476e36a376c27995aee54e1f327dda1642a5e8af7400ca9775460bd115706c6578706572696d656e74616cf564736f6c63430005100040",
  "source": "// SPDX-License-Identifier: MIT\r\npragma solidity >=0.5.0 <0.9.0;\r\npragma experimental ABIEncoderV2;\r\n\r\ncontract Users{\r\n  \r\n  mapping(address => string) public hashList;\r\n  mapping(address => uint) userIndex;\r\n  address[] public userList;\r\n  \r\n  event Update(address user, string Qmhash);\r\n  event Add(address user, string Qmhash);\r\n  event Delete(address user, string Qmhash);\r\n\r\n  function updateHash(string memory _ipfsHash) public {\r\n    hashList[msg.sender] = _ipfsHash;\r\n    emit Update(msg.sender, _ipfsHash);\r\n  }\r\n\r\n  function addUser(string memory _ipfsHash) public {\r\n    userList.push(msg.sender);\r\n    hashList[msg.sender] = _ipfsHash;\r\n    userIndex[msg.sender] = userList.length;//1-indexed map\r\n    emit Add(msg.sender, _ipfsHash);\r\n  }\r\n\r\n  function deleteUser() public {\r\n\r\n    uint index = userIndex[msg.sender] - 1;\r\n    require(index >= 0);\r\n\r\n    if(userList.length > 1){\r\n      userList[index] = userList[userList.length-1];\r\n    }\r\n    userIndex[userList[index]] = index+1;\r\n    userList.pop();\r\n\r\n    delete userIndex[msg.sender];\r\n    string memory _Qmhash = hashList[msg.sender];\r\n    delete hashList[msg.sender];\r\n    emit Delete(msg.sender, _Qmhash);\r\n  }\r\n\r\n  function readHash() public view returns (string memory){\r\n    return hashList[msg.sender];\r\n  }\r\n\r\n  //Experimental - hopefully wont be needed for search\r\n  function readAllHashes() public view returns (string[] memory){\r\n    string[] memory ans = new string[](userList.length);\r\n    for(uint i=0;i<ans.length;i++){\r\n      ans[i] = hashList[userList[i]];\r\n    }\r\n    return ans;\r\n  }\r\n}",
  "sourcePath": "C:/Users/vimar/Desktop/Blockchain_Project/contracts/Users.sol",
  "compiler": {
    "name": "solc",
    "version": "0.5.16+commit.9c3226ce.Emscripten.clang"
  },
  "schemaVersion": "3.3.3",
  "updatedAt": "2020-12-28T20:02:11.754Z",
  "networkType": "ethereum",
  "devdoc": {
    "methods": {}
  },
  "userdoc": {
    "methods": {}
  }
}